:040000008A15002835
:06000600000000000800EC
:10000C000F3083120313FC004730FD00FD0B0C284E
:0A001C00FC0B0C2800000000080097
:0E002600213083120313FD00FD0B1728080084
:0E003400F201F101F001F801F30100300800C3
:100042007B15FB1F2B280130F300F201F101F001B7
:08005200FA0DF20CFF3008006A
:10005A0083120313F801F9011030FC00710DF80D39
:10006A00F90D7408F8027508031C750FF9020318D4
:10007A0045287408F80775080318750FF90703105F
:0A008A00F00DF10DFC0B3328080007
:08009400FA1FF213003008000E
:10009C0083160313EF1B55288312881357288312DA
:1000AC00881783166F1B5D28831208135F28831231
:1000BC0008178316EF1A6528831288126728831293
:1000CC00881683166F1A6D28831208126F288312F4
:1000DC00081683165518752883120615772883126F
:1000EC0006118616032086128316EF1980288312B8
:1000FC00881382288312881783166F198828831215
:10010C0008138A28831208178316EF189028831275
:10011C00881292288312881683166F1898288312D7
:10012C0008129A288312081683165518A0288312D1
:10013C000615A22883120611861603208612831632
:0C014C00551CAA280620AB281320080030
:10015800FB14FB1FB628FF30F300F200F100F0009B
:08016800FA0DF20CFF30080053
:1001700083160313ED0105306D020318C6286D08C0
:100180006C07840020308000ED0ABB286D086C07E6
:1001900084008001ED036D086C07EE000A30F40066
:1001A000F5016A08F0006B08F1002D207808F000D6
:1001B0007908F1003030F00783166E08840070086B
:1001C00080000A30F400F5016A08F0006B08F100C5
:1001D0002D2070088316EA007108EB0000307106CC
:1001E000031DF42800307006031DF728F928ED03DD
:0401F000CB28080010
:1001F4007B14FB1F0529F201FA1FFF30F200F10006
:0A020400F000FA0DF20CFF300800C4
:10020E008316031355106A08EF004E2083165514FB
:02021E000800D6
:0E0220008316031352088A005108820008005A
:10022E00710DF80DF90D7408F8027508031C750FA1
:10023E00F902F00DF10D0F30FC00710DF80DF90DF6
:10024E007408701C3029F8027508031C750FF9022A
:10025E003529F80775080318750FF907F00DF10D1C
:10026E00FC0B2429701841297408F8077508031827
:08027E00750FF90700000800EC
:10028600A0017208031D58297108F2007008F100D8
:10029600F001A0157208031D58297108F200F1013A
:1002A600A01120167208031966292008F302031DFF
:1002B600031C6A290310F21B6E29F00DF10DF20DD5
:1002C600F30B5E296A290130FC001A2071290230DD
:0E02D600FC00212071290430FC004A200800A1
:1002E4000E3083120313FD00FD0B76290000080075
:0602F400FB15FF300800BD
:1002FA00831203137408003A031D98297508003AFB
:10030A00031D98297608003A031D98297708003AB0
:10031A00031D9829FF30F000FF30F1007F30F20012
:10032A00FF30F300332A8312031377080319272AAD
:10033A00730803192A2A720876068039FA00F21716
:10034A00F617A0017208F8007108FC007008FD0099
:10035A007408FD027508031C750FFC027608031C5D
:10036A00760FF802F801FC01FD01031CC3290310F2
:10037A00F20CF10CF00CF80C0130A0007708F30233
:10038A00031CCD297E302007F30703182D2AD22912
:10039A007E302007F307031C302A1830FA07FD0DB8
:1003AA00FC0DF80DF00DF10DF20DA00D7408F00220
:1003BA007508031C750FF1027608031C760FF2020A
:1003CA00760DA004201CEB297D14F6297408F00789
:1003DA0075080318750FF10776080318760AF207ED
:1003EA007D10FA031F307A05031DD4297B1B7D1C5F
:1003FA001D2A0310F00DF10DF20DA00D7408F00284
:10040A007508031C750FF1027608031C760FF202B9
:10041A00760D20040139FD070318FC0A0319F80AAE
:10042A00031D1D2AF80CFC0CFD0CF30A03192D2AD6
:10043A00FA1FF8137808F2007C08F1007D08F00032
:10044A000030322A01307A21322A02301A20322A26
:0E045A000430AC20322A0830212000000800B7
:10046800462A803083160313E100592AC030E10080
:10047800592A9430E100592AD430E100592A8030B1
:10048800E100592A831603136108013A0319352A32
:100498006108023A03193A2A6108033A03193D2A06
:1004A8006108043A0319402A432A6203F0006108EC
:1004B800F0077008E10055147008EF004E2083160D
:0E04C80055106308EF004E20831655140800EF
:1004D60083160313E601E7016108E8006208E900F4
:1004E60080306206F00080307002031D7C2A0030E6
:1004F600610203188A2A0130E6000030E70061082D
:10050600003CE8006208031C013EE901E9026808B4
:10051600EA006908EB006308EC00B8200630E40046
:100526000030E5006508003C031D9B2A6408003C7A
:100536000318B62A64086307F20001306402F0006B
:100546000030031C013E6502F10070086307840059
:100556000008F00072088400700880000130E40290
:10056600031CE503952A6308840020308000660892
:1005760067040319D42AE401E501640863078400CB
:100586000008203A031DCB2AE40A0319E50AC02A0B
:100596000130E402031CE5036408630784002D3080
:0405A60080000800C9
:1005AA0083120313FB017308031D770803192C2B0D
:1005BA0072087606FA007708F3077E30031CE92AE8
:1005CA00F30203182F2BEC2AF302031C322B7208B6
:1005DA00F8007108FC007008FD00F817F617031000
:1005EA00F201F101F0011830A0007D1C062B7408FD
:1005FA00F00775080318750FF10776080318760FC8
:10060A00F207F20CF10CF00CF80CFC0CFD0C0310C8
:10061A00A00BFA2AF21B162BF80DF00DF10DF20DB4
:10062A00F3037B1B701C282BF81F282BF00A0319D5
:10063A00F10A0319F20A031D282BF20CF10CF00C33
:10064A00F30A03192F2BFA1FF2130030342B01304F
:10065A001A20342B0230AC20342B04302120000025
:02066A00080086
:10066C0083120313FB0173080319732B7208FA002E
:10067C00F2178E30F302F31F762BF309F30A0830CE
:10068C007302031C592BF300F10D7208F100F201F7
:10069C0008307302031C592BF300F10DF1017308A0
:1006AC00031D0310612B73080319612B0310F20C4B
:1006BC00F10CF30B5C2B7B1B711C6B2B031C6B2B3E
:1006CC00F10A0319F20AF21B822BFA1F852BF2098D
:1006DC00F109F10A0319F20A852BF201F101852BBC
:1006EC007B14FB1F882BF201FA1F882BFF30F200C2
:1006FC00F100FA0DF20C882B0130FC008A2B003033
:10070C00FC008A2BFF30FC00FC0803198E2BFA200E
:0A071C007108F0007208F1000800F7
:10072600831203137008F8007108F000F101F2015A
:10073600F301FB01FC019630F300FA01F01FA92B2F
:10074600F809F009F80A0319F00AFA177008F10017
:0C0756007808F000F801F20143210800CF
:1007620083120313FB01FC01FA0173080319F02B36
:10077200F2178E30F302F31BC12B0319C12BF32B9B
:10078200F309F30A08307302031CD62BF300F10DB0
:100792007208F100F20108307302031CD62BF10D2E
:1007A200F1017308031D0310DE2B73080319DE2BFE
:1007B2000310F20CF10CF30BD92B7B1B711CE82BF1
:1007C200031CE82BF10A0319F20AF21BFF2BFA1F92
:1007D200022CF209F109F10A0319F20A022CF201C0
:1007E200F101022C7B14FB1F052CF201FA1F052CD0
:1007F200FF30F200F100FA0DF20C052C0130FC0082
:10080200072C0030FC00072CFF30FC00FC08031909
:0E0812000B2CFA207108F0007208F1000800AB
:10082000831203137408003A031D1F2C7508003A45
:10083000031D1F2CFF30F0007F30F100782C831255
:100840000313FD01F901F801710870040319003464
:1008500071087506FA00FA1BFD09FB01F51F352C1E
:10086000F409F509F40A0319F50AF11F3C2CF00903
:10087000F109F00A0319F10A71087504FA00FA1B6C
:10088000512C17217B18642CFD1F0034F009F1094D
:10089000F00A0319F10AF809F909F80A0319F90A23
:1008A0000034F51F602CF11B5C2C7108F9007008F6
:1008B000F800F101F001442CF101F001F00A0034DC
:1008C000F109F009FB0A412CF80A0319F90A740826
:1008D0007802031D442C75087902031D442CF9018C
:1008E000F801F00A0319F10AF11F442C0000FF344B
:0208F0000800FE
:1008F200831603138612061108128812081388132E
:100902008312861206118813081388120812062011
:100912000620062088160816861603208612062050
:1009220086160320861206208616032086120620CB
:1009320008128616032086120620861603208612C7
:100942008812881786160320861206208813081636
:1009520086160320861208128616032086120620A7
:100962008616032086120816861603208612062093
:10097200081286160320861288170817881608168A
:0E0982008616032086120620831655140800E0
:1009900010218A110A128000840AD10A0319D20A8E
:0809A000F003031DC82C080040
:1009A800FF3083160313D600FF30D700FF30D8007E
:1009B800FF30C33083129F05C0309F005409F000F8
:0E09C800700883169F059F1783121F140800E6
:1009D600831203137008F8007108F000F101F201A8
:1009E600F301FB01FC019630F300FA017008F100F7
:0C09F6007808F000F801F201432108002D
:100A020083120313FA017308031D7A147708031D76
:100A1200FA147A0803194D2D033A0319182D7A187E
:100A2200152DF61F4B2D492DF21F492D4B2D720806
:100A32008039FA00F21376088039F6137A06031920
:100A4200262D7A080319492D4B2D770873020319B5
:100A52002D2D031C412D452D760872020319342DCC
:100A6200031C412D452D7508710203193B2D031CF2
:100A7200412D452D7408700203194D2D0318452D83
:100A8200FA0803194B2D492DFA080319492D4B2D4C
:100A920003140800031008000314031508000800DB
:100AA200632D803083160313E100762DC030E10000
:100AB200762D9430E100762DD430E100762D803011
:100AC200E100762D831603136108013A0319522DB2
:100AD2006108023A0319572D6108033A03195A2D86
:100AE2006108043A03195D2D602D6203F00061086C
:100AF200F0077008E1007008EF004E2083165510D1
:100B0200E40164086307840000080319902D640857
:100B1200630784000008EA000721E40A822D5514C5
:020B22000800C9
:100B2400C330831203139F05C0309F0083166108EE
:100B3400F000F00D7010F00D7010700883129F0417
:100B44005409F000700883169F059F1783121F1421
:100B540072219F149F1CB02D0000AC2D1F101E0885
:100B6400F100F00183161E08F0040030F1040800BF
:100C500021308400443083120313F000BA3083162D
:100C6000D1000530D200C824A03084000E30F0003E
:100C700011308316D1000630D200C82465308400BC
:100C80000930F0001F308316D1000630D200C8248E
:100C9000AE3084001330F000FE308316D1000530F2
:060CA000D200C824080088
:101000008A1128268A15073083160317880089015C
:1010100083128713881383160313880183128801B0
:1010200083168901831289018A11D4248A158A11B1
:1010300079248A150130EF008A114E208A150C3070
:101040008316EF008A114E208A150530FB000F3001
:10105000FC00F130FD00FD0B2B28FC0B2B28FB0BBB
:101060002B288316E1018A1192258A157008D30076
:101070007108D4000130E1008A1192258A157008A8
:10108000CF007108D0000230E1008A1192258A1544
:101090007008DF007108E0005F088312EE0083161D
:1010A00060088312EF0083165308F0005408F10023
:1010B0008A11EB248A150030F4000030F500483026
:1010C000F6008530F7008A11D5228A150030F40029
:1010D0008030F5007F30F6008830F7008A117D21DE
:1010E0008A158A11B1238A1570088316D3007108F6
:1010F000D4005F08F0006008F1008A11EB248A1523
:101100000030F4000030F5004830F6008530F7007C
:101110008A11D5228A150030F4008030F5007F3026
:10112000F6008830F7008A117D218A158A11B123D3
:101130008A157008EE007108EF0083164F08F00062
:101140005008F1008A11EB248A150030F4000030B9
:10115000F5002030F6008130F7008A11D5228A157B
:101160000030F400C030F5007F30F6008830F70022
:101170008A117D218A1570088316C5007108C60082
:101180007208C7007308C8000030F4000030F50092
:101190004830F6008530F7008A11D5228A1570088C
:1011A0008316C5007108C6007208C7007308C8001E
:1011B0008A1136238A158A1193238A15700883169B
:1011C000C1007108C2007208C3007308C400003077
:1011D000F4000030F5000C30F6008530F7008A117D
:1011E00001258A15013003180030F000700803193A
:1011F000252A003083165402031D0029463053026D
:101200000318252A003083126F02031D0929463076
:101210006E020318252A88010130890001308316E7
:10122000E1000130E2002630E3008A1151258A15E1
:101230000230E1000A30E2002130E3008A1151253A
:101240008A150230E1000A30E2004508F000460845
:10125000F1004708F2004808F3008A1136238A1586
:101260006430F4000030F5008A1110248A15303003
:1012700070078316E3008A1134228A150230E100D8
:101280000B30E2004508F0004608F1004708F20084
:101290004808F3008A1136238A150A30F40000301A
:1012A000F5008A1110248A150A30F4000030F50088
:1012B0008A1110248A157808F0007908F10030307E
:1012C00070078316E3008A1134228A150230E10088
:1012D0000C30E2004508F0004608F1004708F20033
:1012E0004808F3008A1136238A150A30F4000030CA
:1012F000F5008A1110248A157808F0007908F100A9
:10130000303070078316E3008A1134228A150330C7
:10131000FB000830FC007730FD00FD0B8D29FC0B35
:101320008D29FB0B8D290130EF008A114E208A1583
:101330000C308316EF008A114E208A15831653084D
:10134000E1005408E200C930E3008A116B228A15DB
:101350000130EF008A114E208A1501308316E1001A
:101360000130E2003330E3008A1151258A15023042
:10137000E1000130E200C930E3008A1151258A15ED
:101380000230E1000830E2006530E3008A115125A7
:101390008A150330FB000830FC007730FD00FD0BA0
:1013A000CF29FC0BCF29FB0BCF290130EF008A118D
:1013B0004E208A150C308316EF008A114E208A15B4
:1013C0006E088316E10083126F088316E200D9309D
:1013D000E3008A116B228A150130EF008A114E203A
:1013E0008A1501308316E1000130E200A030E300ED
:1013F0008A1151258A150230E1000130E200D9300E
:10140000E3008A1151258A150230E1000830E2001C
:10141000BE30E3008A1151258A150330FB000830E5
:10142000FC007730FD00FD0B132AFC0B132AFB0B8D
:10143000132A0130EF008A114E208A150C308316D2
:10144000EF008A114E208A156A2B0030F40000301C
:10145000F5000C30F6008530F70083164108F000E7
:101460004208F1004308F2004408F3008A11012504
:101470008A150130031C0030F00070080319D52ACA
:10148000013088000230890001308316E10001300C
:10149000E200AE30E3008A1151258A150230E100E6
:1014A0000A30E2006930E3008A1151258A150230C2
:1014B000E1000A30E2004508F0004608F100470864
:1014C000F2004808F3008A1136238A156430F400CC
:1014D0000030F5008A1110248A1530307007831609
:1014E000E3008A1134228A150230E1000B30E20059
:1014F0004508F0004608F1004708F2004808F300EC
:101500008A1136238A150A30F4000030F5008A115A
:1015100010248A150A30F4000030F5008A111024D6
:101520008A157808F0007908F100303070078316CA
:10153000E3008A1134228A150230E1000C30E20007
:101540004508F0004608F1004708F2004808F3009B
:101550008A1136238A150A30F4000030F5008A110A
:1015600010248A157808F0007908F10030307007EF
:101570008316E3008A1134228A150330FB000830F9
:10158000FC007730FD00FD0BC32AFC0BC32AFB0BCC
:10159000C32A0130EF008A114E208A150C308316C1
:1015A000EF008A114E208A156A2B00306F02031D4E
:1015B000DB2A46306E02031C202B013088000230EB
:1015C00089006E088316E10083126F088316E2001B
:1015D000D930E3008A116B228A150130E100013015
:1015E000E2005530E3008A1151258A150230E100EE
:1015F0000130E200D930E3008A1151258A1502300A
:10160000E1000230E2005130E3008A1151258A15D1
:101610000330FB000830FC007730FD00FD0B0E2B83
:10162000FC0B0E2BFB0B0E2B0130EF008A114E2012
:101630008A150C308316EF008A114E208A156A2B0A
:10164000003083165402031D272B46305302031C1F
:101650006A2B0130831288000230890083165308F8
:10166000E1005408E200C930E3008A116B228A15B8
:101670000130E1000130E2004330E3008A115125DE
:101680008A150230E1000130E200C930E3008A111E
:1016900051258A150230E1000830E2003F30E300B6
:1016A0008A1151258A150330FB000830FC00773081
:1016B000FD00FD0B592BFC0B592BFB0B592B01305B
:1016C000EF008A114E208A150C308316EF008A1124
:0816D0004E208A1531286B2B16
:0A0B740020342034203443340034D0
:100B7E00543465346D347034653472346134743485
:0A0B8E007534723465343A340034D3
:100B98004734613473342034533465346E347334D9
:080BA8006F3472343A3400345A
:080BB000503450344D34003480
:100BB80043347234693474346934633461346C3462
:0C0BC80020344734613473343A34003474
:060BD400643442340034D9
:020BDA003034B5
:100BDC0043347234693474346934633461346C343E
:100BEC00203453346F3475346E346434213400340F
:100BFC0043347234693474346934633461346C341E
:100C0C002034543465346D34703421343A34003427
:060C1C0064344234003490
:100C220053346F3475346E34643420345334653441
:0C0C32006E3473346F3472343A34003482
:080C3E00503450344D340034F1
:0A0C460020342034203443340034FD
:04400E00F22F000786
:00000001FF
